:020000040800F2
:10000000D83F002031020008172600089F21000871
:100010001526000881090008BD2B0008000000001B
:10002000000000000000000000000000990100082E
:100030008F09000800000000DD0100089D2A00086B
:100040004B0200084B0200084B0200084B0200085C
:100050004B0200084B020008C50900084B020008CB
:100060004B0200084B0200084B0200084B0200083C
:100070004B0200084B0200084B0200084B0200082C
:100080004B0200084B0200084B0200084B0200081C
:100090004B0200084B0200084B0200084B0200080C
:1000A0004B020008452B00084B0200084B020008D9
:1000B0004B0200084B0200084B0200084B020008EC
:1000C0004B0200084B0200084B0200084B020008DC
:1000D0004B0200084B0200084B0200084B020008CC
:1000E0004B0200084B0200084B02000800F002F827
:1000F00000F043F80AA090E8000C82448344AAF17F
:100100000107DA4501D100F038F8AFF2090EBAE87C
:100110000F0013F0010F18BFFB1A43F0010318473B
:10012000D45F0000F45F0000103A24BF78C878C1A3
:10013000FAD8520724BF30C830C144BF04680C60ED
:10014000704700000023002400250026103A28BF35
:1001500078C1FBD8520728BF30C148BF0B60704739
:10016000642900F0FD80002070471FB59DE8030062
:1001700000F0F8F91FBD10B510BD00F00FFB1146DF
:10018000FFF7F3FF02F050FD00F02DFB03B4FFF783
:10019000F2FF03BC00F05EFB224B19680868B0E870
:1001A000F00F80F30988BFF36F8F4FF0000080F3EA
:1001B00011884EF00D0E70470000000006480068E0
:1001C000006880F3088862B661B6BFF34F8FBFF353
:1001D0006F8F00DF00BF00BF08ED00E0EFF3098084
:1001E000BFF36F8F0F4B1A6820E9F00F106008B54E
:1001F0004FF0500080F31188BFF34F8FBFF36F8F24
:1002000003F0D0FE4FF0000080F31188BDE80840F5
:1002100019680868B0E8F00F80F30988BFF36F8FA2
:10022000704700BF44000020EFF3058070470000D6
:100230000948804709480047FEE7FEE7FEE7FEE77A
:10024000FEE7FEE7FEE7FEE7FEE7FEE704480549B6
:10025000054A064B70470000432B0008ED000008DC
:10026000D8390020D83F0020D83B0020D83B0020C0
:1002700070B5064600F05AF9056806F10B0020F04B
:100280000704B4429CBF002070BD2B466A68BAB117
:100290001068A04210D304F1080188423CBF5068A6
:1002A000586007D35168101941601168091B01603B
:1002B00058601460101D70BD13465268002AE7D1C3
:1002C0002146284600F03AF90028DED170BD000032
:1002D0000FB41CB5074B06AA7B44694600900598ED
:1002E00000F0FBF90020694600F00AFA1CBC5DF83A
:1002F00014FB0000250400002DE9F0410E460446E1
:10030000002020622046E168884730B3252805D0C8
:10031000D4E901219047206A401CF2E7E1682046B9
:1003200000278847050018D0A5F14100192802D8F8
:1003300020354FF400673246294620462760FFF7F4
:100340000FFF40B1012804D0F61D26F0070608363D
:10035000D8E7361DD6E72846DAE7206ABDE8F081FF
:100360002DE9F0410646002410687529314616A58E
:1003700010D0AFF30080002802DA404213A507E056
:1003800031688A0701D512A502E0490704D511A5F5
:10039000012401E0AFF3008000210A2206F12407C6
:1003A00009E0B0FBF2FCB0FBF2F302FB1C003030C2
:1003B00078541846491C0028F3D123462A46304673
:1003C000BDE8F04100F02BB9000000002D00000056
:1003D0002B00000020000000032A40F2308010F0C3
:1003E000030C00F0158011F8013BBCF1020F6244D0
:1003F00098BF11F801CB00F8013B38BF11F8013B61
:10040000A2F1040298BF00F801CB38BF00F8013B0D
:1004100011F0030300F02580083AC0F0088051F87D
:10042000043B083A51F804CBA0E80810F5E7121D88
:100430005CBF51F8043B40F8043BAFF30080D207A7
:1004400024BF11F8013B11F801CB48BF11F8012B73
:1004500024BF00F8013B00F801CB48BF00F8012B96
:10046000704710B5203AC0F00B80B1E81850203A20
:10047000A0E81850B1E81850A0E81850BFF4F5AF44
:100480005FEA027C24BFB1E81850A0E8185044BFCE
:1004900018C918C0BDE810405FEA827C24BF51F83B
:1004A000043B40F8043B08BF7047D20728BF31F82F
:1004B000023B48BF11F8012B28BF20F8023B48BF80
:1004C00000F8012B704702F0FF0343EA032242EADF
:1004D000024200F01CB94FF0000200B513469446EA
:1004E0009646203922BFA0E80C50A0E80C50B1F18C
:1004F0002001BFF4F7AF090728BFA0E80C5048BFA0
:100500000CC05DF804EB890028BF40F8042B08BF3D
:10051000704748BF20F8022B11F0804F18BF00F839
:10052000012B7047704770477047000000487047C4
:1005300080390020704770477047704738B50446CF
:100540000A4600206946AFF30080002808BF38BD86
:1005500002460099204600F0FFF8012038BD012036
:1005600000F014B9F8B5AFF30080054600200C4642
:10057000102000BF0646A819A0420DD93246694690
:100580000020AFF30080070008BF00F0FFF80098DC
:10059000A04218BF0546C419FFF7C8FF056007460B
:1005A000F01D20F007004619284600F00AF8B44272
:1005B00008BFF8BDA21B31463868BDE8F84000F01E
:1005C000CBB800210160C0E90110704710207047CE
:1005D00070B50446051FFFF7A9FF0068002C14BF83
:1005E000446870BD002C18BFAC423CBF2046646814
:1005F000F8D301680A18AA4218BF456003D12A68D7
:1006000005461144016028684119A1421CBF6C6075
:1006100070BD6168696021680844286070BD2DE97B
:10062000F0470D4699469246044600F124080168B9
:10063000880604D5E06921F01001216000E0012066
:10064000A84201DD471B00E00027A1697A1902EBEF
:100650000900081AA0612078C00602D42046AFF332
:100660000080002608E0D4E901211AF8060090472E
:10067000206A401C761C20624E45F4DB2078C006C0
:100680000AD52046AFF3008006E0D4E901213020EE
:100690009047206A401C2062381EA7F10107F4DC55
:1006A00007E0D4E9012118F805009047206A401CB2
:1006B0002062281EA5F10105F3DC2046AFF300807F
:1006C0002078000602D50220BDE8F0870120FBE774
:1006D00001694A1C02610878704700B58FB0CDE906
:1006E00001310021059105497944CDE903101146F6
:1006F0006846FFF701FE0FB000BD0000E5FFFFFFF9
:100700000A6802F8010B0A6070474FF000020429E2
:10071000C0F0128010F0030C3FF4DFAECCF1040CFB
:10072000BCF1020F18BF00F8012BA8BF20F8022B64
:10073000A1EB0C01FFF7D1BE5FEAC17C24BF00F83A
:10074000012B00F8012B48BF00F8012B7047000077
:100750000048704778390020034640688C460028DE
:1007600018BF88423CBF03464068F8D31868184455
:10077000884207D00CF1030020F00700001D411A49
:10078000521A0146081D0A60FFF722BF10B500F09B
:1007900039F8BDE8104000F02FB870477546FFF7F4
:1007A000D7FFAE4605006946534620F00700854650
:1007B00018B020B5FFF74AFDBDE820404FF0000615
:1007C0004FF000074FF000084FF0000B21F0070139
:1007D000AC46ACE8C009ACE8C009ACE8C009ACE87C
:1007E000C0098D46704710B50446AFF3008020461F
:1007F000BDE81040FFF7CABC002801D000F02AB8BD
:100800007047000010B5012805D0002103A000F0BA
:1008100027F8012010BD09A1F8E70000534947520D
:10082000544D454D3A204F7574206F6620686561C0
:1008300070206D656D6F7279000000003A20486588
:100840006170206D656D6F727920636F7272757063
:100850007465640001491820ABBEFEE72600020063
:1008600070B505460C460A2000E06D1C00F011F83A
:1008700035B128780028F8D102E0641C00F009F8AE
:1008800014B120780028F8D1BDE870400A20AFF3F9
:10089000008008B569468DF800000320ABBE08BD96
:1008A00070B5044620688168C943C90716D18168BC
:1008B00021F00101816000F06FFC054609E000F0C5
:1008C0006BFC401B022804D920688068C043C00725
:1008D00006D020688068C043C007F0D0002070BDFB
:1008E000A06A40F01000A062E06A40F00100E062FF
:1008F000012070BDF8B50446002600962068816886
:10090000C943C9072FD0816841F0010181601748B0
:1009100017490068B0FBF1F0009002E00098401E1B
:10092000009000980028F9D100F036FC054615E04B
:1009300000F032FC401B022810D920688068C043B8
:10094000C0070BD0A06A40F01000A062E06A40F03F
:100950000100E06284F824600120F8BD206880680E
:10096000C043C007E4D10020F8BD000040000020D3
:1009700040420F004FF47A74204602F035FAFBE74C
:10098000FEE74FF47A74204602F02EFAFBE7704738
:1009900002F026F94FF47A74204602F025FA254633
:1009A000064E074C284602F01FFA3146206A04F032
:1009B000E9FA04F0C7FA03F063F8F3E700007A44B9
:1009C00010000020012000F0DBBA72B6FEE7000044
:1009D000F8B504460026009694F8240001280CD0AF
:1009E000012084F824002046FFF75AFF2046FFF735
:1009F00081FF0746380002D05DE00220F8BDA06A02
:100A000020F4885040F00200A062022000F0F8FEBE
:100A10002B490968B1FBF0F04000009002E000981B
:100A2000401E009000980028F9D12068816841F0AC
:100A30000801816000F0B0FB054612E000F0ACFB5D
:100A4000401B0A280DD920688068000709D5A06AD4
:100A500020F0020040F01000A06284F82460012021
:100A6000F8BD206880680007E8D42068816841F0FC
:100A70000401816000F090FB054612E000F08CFB61
:100A8000401B0A280DD920688068400709D5A06A54
:100A900020F0020040F01000A06284F824600120E1
:100AA000F8BD206880684007E8D4A06A20F0020002
:100AB00040F00100A06284F824603846F8BD0000D0
:100AC00040000020F8B500230025009590F8242070
:100AD000012A12D0012280F824204A681F26072A02
:100AE0000DD20468676B521E02EB82029640B74338
:100AF0000E689640374367631AE00220F8BD0D2A5E
:100B00000BD20468276BD21F02EB82029640B743D8
:100B10000E689640374327630AE00468E76A0D3A97
:100B200002EB82029640B7430E6896403743E76275
:100B30000A6807260A2A0BD30468E7680A3A02EB18
:100B400042029640B7438E6896403743E76009E01B
:100B50000468276902EB42029640B7438E689640CC
:100B6000374327610A68102A01D0112A23D1144C77
:100B70000268A2421AD1946824021CD4946844F4F6
:100B8000000494600968102915D10E490E4A0968BD
:100B9000B1FBF2F101EB81014900009102E0009903
:100BA000491E009100990029F9D104E0816A41F0C1
:100BB00020018162012380F824501846F8BD00000E
:100BC000002401404000002040420F000068C06C3B
:100BD000704700002DE9F041044600270025002C55
:100BE00003D0A06A002618B108E00120BDE8F0811A
:100BF000E66284F82460204600F078F82046FFF78B
:100C00004FFEA16AC90600D428B1A06A40F01000C6
:100C1000A0620120EAE7A16A21F4885141F00201B3
:100C2000A1626268E169237B0A4347EA43010A4300
:100C3000A1684FF48077B94208D0012906D000217D
:100C400094F814C0BCF1010F02D00AE03946F7E76E
:100C5000F3B1A36A43F02003A362E36A43F0010304
:100C6000E3622368D3F804C02CF4694C4CEA010C0D
:100C7000C3F804C021688B68DFF868C003EA0C037E
:100C800013438B60A168B94209D0012907D009E05C
:100C9000A3695B1E41EA433141F40061E1E7218A27
:100CA000491E0D052168CB6A23F470032B43CB62E8
:100CB000216889680C4B1940914207D1E662A16A0C
:100CC00021F0020141F00101A1628FE7A06A20F04A
:100CD000020040F01000A062E06A40F00100E06213
:100CE000012083E7FDF7E1FFFE0E1FFF00B585B091
:100CF0000021019102910391049100680E498842FC
:100D000018D10E48816941F400718161816901F453
:100D100000710091816941F004018161806900F0F6
:100D200004000090042001900320029001A90448CF
:100D300000F032F905B000BD00240140001002406F
:100D4000000801402DE9F84304460D464FF0000825
:100D5000CDF8008000F020FA064620688168C905B9
:100D600008D5A06A40F02000A06284F82480012009
:100D7000BDE8F8834168C90503D4C06A10F4700F58
:100D800031D0022000F03CFD3E490968B1FBF0F78C
:100D9000206801693C4A11424FEA62024FEAA213FD
:100DA00026D1C1684FEA621C11EA0C0F20D10169FB
:100DB00011422CD1C068184229D114202AE0681CA5
:100DC00011D025B100F0E8F9801BA8420BD92068AA
:100DD0000068800707D4A06A40F00400A06284F88D
:100DE00024800320C4E7206800688007E7D52CE052
:100DF0000169114202D1C168194206D00269234932
:100E00000A4206D1C068084203D1542002E02920DA
:100E100000E0FC20474315E0681C10D025B100F02D
:100E2000BBF9801BA8420AD90098B84207D2A06A31
:100E300040F00400A06284F82480032098E7009822
:100E4000401C00900098B842E6D321686FF0120071
:100E50000860A06A40F40070A06220688068C0F357
:100E6000424007280CD1207B50B9A06A20F4807042
:100E7000A062A06AC00403D4A06A40F00100A0628E
:100E8000002075E740000020244992244992240064
:100E900070B5044694F8240001280CD0012084F891
:100EA00024002046FFF726FD0146002229B184F8E0
:100EB0002420084670BD022070BDA06A40F20123C4
:100EC000984340F48070A062234D2068234BA842D1
:100ED00018D11E6816F4702F14D0A66A46F4801636
:100EE000A6621E68760505D5A66A26F4005646F465
:100EF0008056A662A66AF60412D5E66A26F00606B1
:100F0000E6620EE0A66A26F48016A66246687605BA
:100F1000F0D5A66A26F4005646F48056A662E9E7A4
:100F2000E26284F824206FF0020202602068826886
:100F3000C2F34242072A05D1A84208D11A6812F426
:100F4000702F04D0826842F480128260B1E7826818
:100F500042F4A0028260ACE7002801400424014072
:100F600010B506480121806802F07AF84FF0E020C1
:100F7000016941F00201016110BD00001000002074
:100F800010B504490A68024202D00860FFF7E8FF82
:100F900010BD0000140401402DE9F84F0024002387
:100FA000DFF8C4914FF00F08A9F1040B09F1040A0E
:100FB000ABF1040ED1E00127A7403A40BA4275D107
:100FC000DFF8A8C14D68A5EB0C0665452BD00DDCFC
:100FD000032D34D005DC35B3012D19D0022D2FD1CE
:100FE0001BE0112D16D0122D2AD119E0B6F5881F5D
:100FF00019D006DCB6F5803F15D0B6F5801F1FD19D
:1010000011E0B6F5001F0ED0B6F5041F18D10AE0A6
:10101000CB6815E0CB681B1D12E0CB6808330FE0EE
:10102000CB680C330CE08B6823B1012B04D0082370
:10103000476105E0042303E00823076100E0002383
:10104000FF2A01D8054601E000F1040502D84FEA65
:10105000840603E0A4F108064FEA86062F6808FA22
:1010600006FC27EA0C0703FA06F647EA06072F6094
:101070004D68ED0070D53E4DAE6946F00106AE619B
:10108000AD6905F0010500953A4D24F00306771986
:10109000BE68A5072D0F08FA05FC26EA0C06DFF846
:1010A000D8C0604503D14FF0000C17E054E0DFF8E2
:1010B000CCC0604502D14FF0010C0FE0DFF8C0C09A
:1010C000604502D14FF0020C08E0DFF8B8C060457F
:1010D00002D14FF0030C01E04FF0040C0CFA05FCB8
:1010E0004CEA060CC7F808C04D68ED0205D5D9F8E2
:1010F00000501543C9F8005004E0D9F8005095435A
:10110000C9F800504D68AD0205D5DAF80050154316
:10111000CAF8005004E0DAF800509543CAF80050CD
:101120004D68AD0305D5DBF800501543CBF80050F2
:1011300004E0DBF800509543CBF800504D68ED0318
:1011400005D5DEF800501543CEF8005004E0DEF877
:1011500000509543CEF80050641C0A6832FA04F53A
:101160007FF429AFBDE8F88F08040140000011109A
:10117000001002400000014000080140000C014046
:101180000010014000140140002A01D001617047A5
:101190000904016170470000014880687047000041
:1011A0003400002070B50446002C04D094F83D00B3
:1011B000002510B106E0012070BD84F83C502046A7
:1011C00000F01CFA242084F83D002068016821F01A
:1011D000010101602068016841F40041016020685C
:1011E000016821F40041016000F0B2FC4F4B6168DE
:1011F000994203D84E49884203D304E04D498842BE
:1012000001D2012070BD4C49B0FBF1F12268566853
:1012100026F03F060E43566062689A4201D8491C88
:1012200007E04FF4967251434FF47A72B1FBF2F13A
:10123000491C2268166A26F03F0631431162616834
:10124000994210D84900401EB0FBF1F2521CC2F383
:101250000B02042A01D2042022E0B0FBF1F0401C72
:10126000C0F30B001CE0A268F2B301EBC10303EB77
:101270000116431EB3FBF6F35B1C43F480431B05CE
:1012800049D092B301EBC10202EB0111401EB0FB49
:10129000F1F0401CC0F30B0040F4804040F40040EB
:1012A0002168CA694CF6FF739A431043C861D4E9B8
:1012B000071001432068026822F0C0021143016058
:1012C000D4E9030101432068826848F2FF339A435E
:1012D00011438160D4E9051001432068C26822F0FF
:1012E000FF021143C16001E00EE016E020680168D2
:1012F00041F0010101602564202084F83D00256350
:1013000084F83E50002070BD01EB4106431EB3FB44
:10131000F6F35B1CB3E70120C2E701EB4101401E7D
:10132000B0FBF1F0401CC0F30B00B7E7A086010052
:1013300080841E0000093D0040420F002DE9FF4F50
:1013400081B004468B461F46FFF726FF0546002660
:1013500094F83D00202803D0022005B0BDE8F08FAE
:101360001923012251492046009500F0B5FF08B12C
:101370000220F2E794F83C00012807D0012084F80D
:101380003C0020680168C90702D005E00220E4E7BC
:10139000016841F0010101602068016821F40061E9
:1013A0000160242084F83D004FF0000AC4F840A0FA
:1013B0003F48E0624FF020092068016841F48071E5
:1013C00001603B4600224FF001112046009500F0DD
:1013D00083FF40B120680068C00502D54FF400705B
:1013E00020640320B9E721680BF0FE000861FFF7D5
:1013F000D3FE054620684169C1F340014069C0F34E
:1014000080204FF0A0080EE0FFF7C6FE401BB84258
:1014100000D80FB984F83D8020684169C1F34001CC
:101420004069C0F3802094F83D20A02A02D009B979
:101430000028E9D084F83D9020684169C9438907B4
:1014400018D42168096841F400710160206841697D
:10145000806900901923012214492046009500F06C
:101460003BFF08B1012078E784F83D9084F83CA068
:10147000002072E7016841F40071016021686FF497
:10148000806048611923012208492046009500F038
:1014900023FF08B1012060E7761C039886428BD3B6
:1014A00084F83D9084F83CA0012056E7020010002B
:1014B0000000FFFF2DE9F84F04468A46154699467D
:1014C000DDF82880FFF768FE064694F83D002028E6
:1014D00002D00220BDE8F88F192301224549204699
:1014E000009600F0F9FE08B10220F3E794F83C0002
:1014F000012807D0012084F83C0020680168C90752
:1015000002D005E00220E5E7016841F00101016039
:101510002068016821F400610160212084F83D0009
:10152000102084F83E00002727646562A4F82A9002
:10153000608D20853048E062334642465146204661
:1015400000F046FE08B10120C4E7206841698069C7
:1015500000903EE032464146204600F077FF48B119
:10156000206C042804D12068016841F400710160F6
:101570000120AFE7606A216800780861656A6D1C28
:101580006562608D401E6085208D401E80B2208582
:1015900022685169C94349070BD450B128781061BA
:1015A000606A401C6062608D401E6085208D401E18
:1015B000208532464146204600F062FE48B1206C4C
:1015C000042804D12068016841F400710160012001
:1015D00080E7208D0028BDD11F3454F81F0C01680E
:1015E00041F4007101602020A077E7776777002041
:1015F00070E70000020010000000FFFF10B586B089
:1016000000210291039104910591006810498842DC
:101610001BD1104CA06940F00800A061A06900F047
:10162000080001904FF440600290122003900320C4
:10163000059002A90848FFF7AFFCE06940F480007C
:10164000E061E06900F48000019006B010BD000088
:101650000058004000100240000C01400248816820
:1016600002781144816070473400002010B50748AB
:10167000016841F010010160032000F0A1F80F2083
:1016800000F006F800F04AF8002010BD00200240EB
:1016900030B587B005461C48816941F4006181611D
:1016A000806900F40060009001A902A800F02CFA03
:1016B00000F05EFA1549B0FBF1F1491E1548144AD5
:1016C000026040F2E732C260416000220261826043
:1016D000826100F047FC044694B90E4800F068FCB3
:1016E00004466CB9192000F03DF8102D07D20022F5
:1016F0002946192000F044F80748056000E001245D
:1017000007B0204630BD00000010024040420F00EC
:10171000002C01404C0500203800002008B50F487F
:10172000816941F001018161816901F0010100914C
:10173000C16941F08051C161C06900F080500090E2
:1017400000220F21901E00F01BF80549486820F088
:10175000E06040F00070486008BD000000100240EA
:1017600000000140002809DB00F01F020121914028
:101770004009800000F1E020C0F80011704700002F
:10178000F0B40D460D4B1B68C3F30223C3F10704ED
:10179000042C00D90424191D072901D2002300E0DC
:1017A000DB1E012606FA04F1491E294099409E409D
:1017B000761E16403143F0BC01F001BA0CED00E09A
:1017C00000F00701054A10684FF6FF03184040EA91
:1017D0000120034908431060704700000CED00E051
:1017E0000000FA0590FAA0F0044AB0FA80F002EB8B
:1017F00080000121C0F880107047000000000E42F8
:1018000010B501460020244C012922D0022939D0EC
:1018100010291DD161682268D20119D51F48C1F372
:101820008342805CC9030AD561681C4AC1F3404108
:10183000921E515C1A4AB2FBF1F1484301E019498A
:1018400048436168490203D440000321B0FBF1F032
:1018500010BD226AC2F30121012903D1920701D5EB
:10186000C80310BD022905D1626A920702D549F664
:10187000404010BD0329FCD121688903F9D54FF2FE
:10188000244010BD00F074F96168C1F38131491C36
:101890004900B0FBF1F010BD001002405C60000890
:1018A00000127A0000093D002DE9F8430446DFF8F4
:1018B000F8802078C0075FD00027D8F81C00C0004F
:1018C0000BD4D8F81C0040F08050C8F81C00D8F8A1
:1018D0001C0000F0805000900127344D2868C0059E
:1018E00012D4286840F480702860FFF755FC064643
:1018F00007E0FFF751FC801B642802D90320BDE8F4
:10190000F8832868C005F4D5D8F8200000F44070AA
:1019100010B3A18801F4407181421DD0D8F8200095
:1019200020F44070224901220A6000220A60C8F8AF
:101930002000C00710D0FFF72FFC054641F2883683
:1019400006E0FFF729FC401BB04201D90320D6E78F
:10195000D8F820008007F4D5D8F82000616820F47A
:1019600040700843C8F82000012F05D1D8F81C00AA
:1019700020F08050C8F81C002078800707D5D8F8E0
:101980000400A16820F440400843C8F8040020780F
:10199000C00607D5D8F80400E16820F480000843A9
:1019A000C8F804000020AAE70010024000700040C0
:1019B000400442422DE9F04704460D46002C17D062
:1019C000DFF83081D8F8000000F00700A84211D2FB
:1019D000D8F8000020F007002843C8F80000D8F825
:1019E000000000F00700A84204D00120BDE8F08705
:1019F0000120FBE72068404E810712D5400703D540
:101A0000706840F4E06070602078000703D570686B
:101A100040F4605070607068A16820F0F0000843E6
:101A200070602078C0072CD06068012806D002289A
:101A300009D0316889070BD40120D7E731688903C1
:101A400006D40120D2E73168890101D40120CDE715
:101A5000716821F0030101437160FFF79DFB0746A8
:101A600041F2883906E0FFF797FBC01B484501D9D2
:101A70000320BBE77068616800F00C00B0EB810FD9
:101A8000F1D1D8F8000000F00700A8420ED9D8F82C
:101A9000000020F007002843C8F80000D8F8000034
:101AA00000F00700A84201D001209FE720784007FE
:101AB00005D57068E16820F4E06008437060207824
:101AC000000706D57068216920F4605040EAC10023
:101AD000706000F05DF87168084AC1F30311515C51
:101AE000C8400749086007480068FFF7D1FD00209B
:101AF0007CE7000000200240001002406C600008FB
:101B000040000020380000200F2202600B4A53687A
:101B100003F003034360536803F0F00383605368EA
:101B200003F4E063C360526802F46052D2080261B9
:101B30000348006800F0070008607047001002408A
:101B4000002002400148006870470000400000206B
:101B500000B5FFF7F7FF04494968044AC1F30221C1
:101B6000515CC84000BD0000001002407C600008CD
:101B700000B5FFF7E7FF04494968044AC1F3C221F1
:101B8000515CC84000BD0000001002407C600008AD
:101B90000E4B59680E4801F00C02042A11D0082A95
:101BA0000FD10C48C1F38342805CC9030AD5596840
:101BB000084AC1F34041921E515C054A5043B0FBB4
:101BC000F1F070470449484370470000001002409C
:101BD00000127A004A60000800093D002DE9F84F24
:101BE0000446002C0ED02078D94DC0075ED068681E
:101BF000C0F3810001280BD06868C0F3810002287F
:101C000003D00CE00120BDE8F88F6868C00306D55A
:101C1000286880034AD56068A8BB0120F3E76068A4
:101C2000B0F5803F11D0A8B1B0F5A02F1BD0286827
:101C300020F480302860286820F4802028606068C4
:101C400030B3FFF7A9FA06461EE0286840F480305A
:101C50002860F4E7286820F480302860286820F4A1
:101C600080202860EBE7286840F4802028602868FE
:101C700040F480302860E2E7FFF78EFA801B64288A
:101C800002D90320BFE711E028688003F4D50DE0F6
:101C9000FFF782FA064606E0FFF77EFA801B64280B
:101CA00001D90320AFE728688003F5D42078DFF856
:101CB000A48280074FF0010A4FF0000945D56868FB
:101CC00010F00C0F07D06868C0F38100022812D111
:101CD0006868C0030FD42868800704D520690128EC
:101CE00001D001208FE72868616920F0F80040EA00
:101CF000C100286029E02069B8B1C8F800A0FFF74A
:101D00004BFA064606E0FFF747FA801B022801D986
:101D1000032078E728688007F5D52868616920F0F6
:101D2000F80040EAC10028600FE0C8F80090FFF713
:101D300033FA064606E0FFF72FFA801B022801D986
:101D4000032060E728688007F5D42078000726D5AF
:101D50008148A16999B1C0F800A0FFF71DFA0646B5
:101D600006E0FFF719FA801B022801D903204AE791
:101D7000686A8007F5D5012000F04EFC0FE0C0F83E
:101D80000090FFF709FA064606E0FFF705FA801B08
:101D9000022801D9032036E7686A8007F5D4207845
:101DA000400773D50026E869C00008D4E86940F010
:101DB0008050E861E86900F0805000900126DFF86B
:101DC0009CB1DBF80000C00514D4DBF8000040F43F
:101DD0008070CBF80000FFF7DFF9074606E0FFF759
:101DE000DBF9C01B642801D903200CE7DBF80000F5
:101DF000C005F4D5E068012812D0B0B105281DD087
:101E0000286A20F001002862286A20F00400286275
:101E1000E06841F2883B28B3FFF7BEF907461DE0B2
:101E2000286A40F001002862F2E7286A20F00100E9
:101E30002862286A20F004002862E9E7286A40F056
:101E400004002862286A40F001002862E0E7FFF7FA
:101E5000A3F9C01B584501D90320D4E6286A80079E
:101E6000F5D50DE0FFF798F9074606E0FFF794F97E
:101E7000C01B584501D90320C5E6286A8007F5D460
:101E8000012E03D1E86920F08050E861E069A0B339
:101E90006968C1F38101022946D0022805D0C8F83B
:101EA0006090FFF779F904463AE0C8F86090FFF7D0
:101EB00073F9064606E0FFF76FF9801B022801D987
:101EC0000320A0E628688001F5D4206AB0F5803FA1
:101ED00005D16868A16820F4003008436860D4E93F
:101EE00008010843696821F4741108436860C8F860
:101EF00060A0FFF751F9044607E026E0FFF74CF930
:101F0000001B022801D903207DE628688001F5D551
:101F10001BE0FFF741F9001B022801D9032072E6FC
:101F200028688001F5D410E001280CD06868226A86
:101F300000F48031914204D1616A00F4701088424B
:101F400003D001205FE601205DE600205BE6000093
:101F500000100240000042428004424200700040F3
:101F60007047704710B50446002C03D094F83D002C
:101F700010B107E0012010BD002084F83C0020468D
:101F800000F015F8022084F83D00211D206800F0C3
:101F9000DFFD01203D3460726070A070E070207140
:101FA0006071A071E07120722070002010BD704738
:101FB00090F83D10012901D001207047022180F8DE
:101FC0003D100168CA6842F00102CA6000680E490B
:101FD000884208D0B0F1804F05D00C49884202D029
:101FE0000B49884209D1816801F00701062908D010
:101FF000016841F00101016003E0016841F0010165
:102000000160002070470000002C014000040040E7
:1020100000080040704770B50446206801694FF021
:102020000005C943890716D4C168C943890712D47A
:10203000E91E01610120207720688069800703D0B4
:102040002046FFF7E7FF05E0204600F09BF820461A
:1020500000F099F8257720680169C943490718D429
:10206000C168C943490714D46FF00401016102201B
:1020700020772068806910F4407F03D02046FFF766
:10208000C9FF05E0204600F07DF8204600F07BF80F
:10209000257720680169C943090717D4C168C94376
:1020A000090713D46FF0080101610420207720682C
:1020B000C069800703D02046FFF7ACFF05E020464B
:1020C00000F060F8204600F05EF82577206801698E
:1020D000C943C90618D4C168C943C90614D46FF0EE
:1020E00010010161082020772068C06910F4407F4A
:1020F00003D02046FFF78EFF05E0204600F042F8AF
:10210000204600F040F8257720680169C943C907D7
:1021100008D1C168C943C90704D1891E016120469D
:1021200000F032F820680169C943090609D4C16882
:10213000C943090605D46FF0800101612046FFF70D
:102140000FFF20680169C943490609D4C168C94322
:10215000490605D46FF040010161204600F01EF8E9
:1021600020680169C94389060BD4C168C94389063F
:1021700007D46FF0200101612046BDE87040FFF7F1
:10218000F0BE70BD7047704700680349884201D1B6
:10219000FFF764BA70470000002C01407047FEE76B
:1021A00001684A69D24352050FD46FF480624A61D4
:1021B000002140F8301F202242738173026942F0EF
:1021C0000402026101730120704700207047000083
:1021D000F8B504460D4617461E46E06A082808D0A2
:1021E000012806D010F5803F03D0206B122806D0BE
:1021F0000AE02068016841F48071016004E0206811
:10220000016841F4807101603B4600224FF00111EA
:102210002046009600F060F840B120680068C005D4
:1022200002D54FF4007020640320F8BD2069B0F59A
:10223000804F0FD005F44070F02141EAD0102168A2
:10224000086133463A460D49204600F09BF830B10C
:102250000120F8BD216805F0FE00086102E0216858
:10226000E8B20861054933463A46891F204600F026
:1022700089F808B10120F8BD0020F8BD0800010070
:1022800070B504460D4616461FE02046FFF788FF4E
:1022900008B1012070BD681C17D0FEF77DFF801BC0
:1022A000A84200D88DB920684069C04340070CD5CA
:1022B000002044F8300F20216173A073216941F0A0
:1022C000200121612073012070BD20684069C04356
:1022D0004007DAD4002070BD2DE9F0470446DDF850
:1022E00020900D4690461E46C5F307472FE0701C10
:1022F0002DD0FEF751FFA0EB0900B04200D836BB4D
:10230000012F17D02068806925EA00000004000C26
:102310001BD0002040451AD1002044F8300F202166
:102320006173A073216941F02001216120730120B4
:10233000BDE8F0872068406925EA00000004000C31
:1023400001D00020E6E70120E4E70120E2E7012FC9
:102350000BD02068806925EA00000004000C0FD033
:1023600000204045C3D00020E2E72068406925EA0C
:1023700000000004000C01D00020F2E70120F0E78B
:102380000120EEE72DE9F04704460D461646984633
:102390004FF000094FF0200AC5F3074743E02068DB
:1023A0004069C043400517D42068016841F40071BA
:1023B000016021686FF480604861C4F8309084F84F
:1023C0003DA084F83E90206C40F00400206484F826
:1023D0003C900120BDE8F087701C24D0FEF7DCFEA5
:1023E000A0EB0800B04200D8EEB9012F14D020684D
:1023F000806925EA00000004000C14D0C4F8309075
:1024000084F83DA084F83E90206C40F020002064C9
:1024100084F83C900120DDE72068406925EA00004F
:102420000004000CEAD1012F08D02068806925EA59
:1024300000000004000CB2D10020CBE72068406906
:1024400025EA00000004000CF6D0A8E770B50446A9
:102450000D4616461FE02046FFF7A2FE08B10120F8
:1024600070BD681C17D0FEF797FE801BA84200D8ED
:102470008DB920684069C04300060CD5002044F89F
:10248000300F20216173A073216941F02001216187
:102490002073012070BD20684069C0430006DAD473
:1024A000002070BD3EB500240094019402941048B1
:1024B0000E4901608460047304754FF46021C161AA
:1024C000446001250561FEF785FB08B1FEF77DFA42
:1024D000022000900195029469460548FEF7F2FA41
:1024E000002801D0FEF771FA3EBD00000024014033
:1024F000BC0400202DE9F04385B00024019402942F
:10250000039404943048816941F02001816181691C
:1025100001F020010091816941F00401816181692C
:1025200001F004010091816941F008018161806935
:1025300000F008000090DFF894804FF480660022DD
:1025400031464046FEF720FEDFF884904FF43077A6
:10255000002239464846FEF717FE012501951D4821
:102560000290039401A94846FEF716FD4FF48370CC
:1025700001900294039401A94846FEF70DFD0196CF
:10258000029503940226049601A94046FEF704FD35
:10259000E80201900294039401A94046FEF7FCFC76
:1025A000019702950394049601A94846FEF7F4FCAE
:1025B000002205210620FFF7E3F80620FFF7D2F8F6
:1025C00005B0BDE8F08300000010024000080140A3
:1025D000000C01400000111010B50C480A490160C0
:1025E0000B49416000218160C1604FF4804202616B
:1025F00041618161C1610162FEF7D4FD002801D013
:10260000FEF7E3F910BD000000580040EC04002084
:10261000A0860100FEE7FEE708B507494FF4FA522D
:102620000968B1FBF2F14143009100BF0098411EDF
:102630000091FAD208BD00004000002010B5002033
:1026400000F0DCF8BDE8104000F006BA2DE9F847CC
:102650000746DDF824A00E469846802F21D2402E52
:102660001FD2B818802802D3C7F1800082B206EBCF
:102670000800402803D3C6F140001FFA80F8002468
:1026800007EB02090BE03519ABB21FFA89F2A9B2C8
:102690003846CDF800A000F006F8641CE4B24445CA
:1026A000F1D9BDE8F8872DE9FC4F05460C461646E2
:1026B0001F46802D00D37F25802E00D37F26402CFF
:1026C00000D33F24402F00D33F27B54201D2701BD7
:1026D00000E0A81B0FFA80FABC4201D2381B00E0D0
:1026E000E01B0FFA80F94FF0FF3BB54201D2012009
:1026F00000E058460090BC4201D24FF0010BCA45A1
:1027000001DD504601E0C9F1000000EBD07040103F
:102710000FFA80F8BAF1000F06D0B9F1000F18D007
:10272000CAF1000001903EE0A74202D23846274697
:1027300084B2AE4200D2B5B224B206E0A1B22846BD
:102740000B9A00F039F8641C24B2BC42F6DDBDE8F7
:10275000FC8FA74200D2BCB2AE4202D230462E4617
:1027600085B22DB206E0A8B221460B9A00F024F8FB
:102770006D1C2DB2B542F6DDE9E7BC42E7D040461C
:102780000199884206DDA8EB09010FFA81F800994A
:1027900029448DB2484506DA08EB0A000FFA80F8A2
:1027A00004EB0B0084B2214628460B9A00F004F893
:1027B000B542E4D1E1E7000030B5802813D24029CA
:1027C00011D20C4B1B790BB172B10022012301F025
:1027D0000704A340C908084D00EBC110012A05D029
:1027E000295C9943295430BD0122EFE7295C194344
:1027F000295430BD08000020BC000020002805D06E
:10280000FF224FF480610248FDF75DBE0022F8E729
:10281000BC000020014A1080518070470800002051
:1028200010B501F06BF944F6206301227821544879
:10283000FEF784FD08B1002010BD40F6C410401E14
:102840000028FCD1AE220021782001F05FF920227F
:102850000021782001F05AF910220021782001F09F
:1028600055F9B0220021782001F050F9C82200214A
:10287000782001F04BF900221146782001F046F94A
:1028800010220021782001F041F940220021782017
:1028900001F03CF981220021782001F037F9FF2274
:1028A0000021782001F032F9A1220021782001F0E6
:1028B0002DF9A6220021782001F028F9A822002174
:1028C000782001F023F93F220021782001F01EF941
:1028D000A4220021782001F019F9D32200217820C8
:1028E00001F014F900221146782001F00FF9D522E9
:1028F0000021782001F00AF9F0220021782001F06F
:1029000005F9D9220021782001F000F922220021C6
:10291000782001F0FBF8DA220021782001F0F6F8A7
:1029200012220021782001F0F1F8DB22002178202A
:1029300001F0ECF820220021782001F0E7F88D2248
:102940000021782001F0E2F814220021782001F023
:10295000DDF8AF220021782001F0D8F82E220021E6
:10296000782001F0D3F80020FFF748FF00F074F85A
:10297000044800210180418001214171012010BDE6
:10298000EC040020080000202DE9F04782460E46A6
:102990009146DFF898803178B8F800000844802824
:1029A00005D2B8F8020071780844402802D300200C
:1029B000BDE8F08700252BE0AAF1200101FB0050C3
:1029C000726832F8107000241EE007FA04F0000468
:1029D0000BD5B8F802004A46284481B2B8F8000086
:1029E000204480B2FFF7E8FE0DE0B9F1000F1AD0E5
:1029F0000022B8F80200284481B2B8F80000204450
:102A000080B2FFF7D9FE641C3078A042DDD86D1C7F
:102A10007078A842D0D8B8F8000031780844A8F8F7
:102A200000005046C4E70122E3E700000800002050
:102A300070B504460D46164609E032462946FFF7B2
:102A4000A3FF2178884201D0207870BD641C2078D3
:102A50000028F2D1207870BD70B500240E4D04F12D
:102A6000B000C2B20021782001F050F800221146D7
:102A7000782001F04BF810220021782001F046F870
:102A800005EBC41280234021782001F051F8641C2A
:102A9000E4B2082CE3D370BDBC00002010B5502078
:102AA00080F31188BFF34F8FBFF36F8F01F050FF9A
:102AB00018B104494FF080500860002080F311885D
:102AC00010BD000004ED00E030B593B0282109A846
:102AD000FDF701FD142104A8FDF7FDFC002400947E
:102AE0000194029403940121099108040A900B9423
:102AF0000D910225109511904FF4E010129009A845
:102B0000FFF76CF808B1FDF760FF0F200490059502
:102B100006944FF4806007900894022104A8FEF701
:102B200049FF08B1FDF751FF00954FF400400290B6
:102B30006846FEF7B9FE002801D0FDF746FF13B046
:102B400030BD70470148FFF766BA00004C05002011
:102B5000F0B50268164C174D174E4FF08047A04253
:102B600005D0B84203D0A84201D0B04203D122F030
:102B700070034A681A43A04205D0B84203D0A84265
:102B800001D0B04203D122F44073CA681A434B69A2
:102B900022F080021A4302608A68C2620A68826276
:102BA000A04201D10969016301214161F0BD00002A
:102BB000002C01400004004000080040FEE7090727
:102BC000090E002804DB00F1E02080F800147047B3
:102BD00000F00F0000F1E02080F8141D70470000A5
:102BE00010B54FF0FF33322278210B48FEF7A6FBD9
:102BF00008B1012010BDFFF713FEFFF71FFD1E21D6
:102C00001920FFF707FE0122044905A0FFF710FF76
:102C1000FFF722FF002010BDEC0400200000002080
:102C200057656C636F6D650008B5FEF71FFDFFF714
:102C30004BFFFFF75FFCFFF735FCFFF7CDFC484883
:102C4000C16941F08051C161C06900F080500090BD
:102C50000120FEF7C7FD6420FDF70AFB414D6860C7
:102C60000C20FDF705FBA8603F490160AA68081524
:102C70001081A8684160C814A96848812A22A5F17A
:102C800054016868FDF7EDFBA5F15404618D686897
:102C90004185E16AC162216B01633430092204F18C
:102CA0003401FDF7DEFB94F83D106868443000F80D
:102CB000071C94F83E1000F8061C216C40F8041C18
:102CC000616C0160A16C4160E16C8160216DC1604B
:102CD0004021017407210177042181774177062182
:102CE000C177224981612249416100F0C9F801217F
:102CF000204A084600F04CF91F4CA0611D4A0421EF
:102D0000303A012000F0F8F820611A4A0421183AFC
:102D1000012000F0F1F86061164A0021C03A17481E
:102D200000F0E4F92060134A00219C3A144800F0B6
:102D3000DDF960600F4A0021783A124800F0D6F9B8
:102D4000A0600C4A0021543A0F4800F0CFF9E0602F
:102D50000848103000F062F8E06100F0ADF8FEE7DE
:102D60000010024040050020000801400AD7233C23
:102D700062BE3C3828600008100000208D2D00083D
:102D80009109000883090008750900081348FDF738
:102D90001FFE00241148FEF77BF864210F48FDF761
:102DA000D1FF641CE4B20D48FDF710FF05440A2C66
:102DB000F0D9B5FBF4F001F0B3FF4FF06632084BE9
:102DC00001F0C2FF6FF00B0202F0DAF901F06EFFC2
:102DD0000449086200250024DCE70000BC04002050
:102DE00066660A401000002010B5EFF30581002947
:102DF00009D1EFF3108131B907490968022905D1DA
:102E0000EFF3118111B16FF0050403E0002408B164
:102E100001F00AF8204610BD9400002010B54FF0D4
:102E20000002EFF30581002925D1EFF3108111BBDA
:102E300012490968022902D1EFF31181D9B94FF083
:102E4000FF3158B1836823B1C468202C01D301211C
:102E500005E023B9C36813B9002100E0002101296E
:102E600001D029B107E0806801F0DEF8024602E0F7
:102E700001F0CCF80246104610BD0000940000207E
:102E8000EFF30580002809D1EFF3108030B9094A2B
:102E90001068022805D1EFF3118111B16FF0050020
:102EA000704710B14FF0FF307047012010600020D4
:102EB000704700009400002010B5EFF30580002853
:102EC00009D1EFF3108030B90A4A1068022805D101
:102ED000EFF3118111B16FF0050010BD012802D090
:102EE0004FF0FF3010BD0220106001F00BF8002001
:102EF00010BD000094000020F8B514464FF0000506
:102F0000EFF30582002A3FD1EFF310827ABB1F4A0C
:102F10001268022A02D1EFF3118242BB38B331B3F7
:102F20004FF0FF32B4B1A3685BB1E668502E08D30E
:102F3000266936B1676900FB01F6B74201D3012269
:102F400009E043B9E36833B9236923B9636913B965
:102F5000002200E00022012A01D04AB10CE0002248
:102F60000092A368226901F02FF9054604E00BE006
:102F7000002201F004F9054635B10CB1216800E0EA
:102F80000021284600F0ECFE2846F8BD9400002001
:102F9000F8B50E4614464FF00005EFF30581002901
:102FA00059D1EFF31081002955D12C490968022924
:102FB00002D1EFF31181C9BBC0B386424BD84FF0A9
:102FC000FF325CB1A36823B1E168502901D301222B
:102FD00005E023B9E16811B9002200E00022511C8C
:102FE00039D0012809D0012A2BD0314601F088F8C8
:102FF0000546DDB15CB321682AE0012A17D003221F
:103000000021012001F0BBF80546002DF1D0002E73
:10301000EFD000231A461946284601F051F901283D
:10302000E7D0284600F0AEFE0025E2E713E00320DB
:103030000090002211460120A36801F0C5F8054662
:10304000E3E73146A26801F079F80546D1E70021AF
:10305000284600F085FE2846F8BD000094000020B8
:103060003EB50446002C01D0002903DA6FF00300BE
:10307000029035E04FF0FF300290EFF3058048B941
:10308000EFF3108030B91748006802281DD1EFF324
:103090001180D0B10025019501A8009000230122E4
:1030A000204601F0C3FB002202AB114620460095EA
:1030B00001F0BCFB019898B10B494FF080500860BB
:1030C000BFF34F8FBFF36F8F0AE00023012220462A
:1030D00001F044FB002202AB1146204601F03EFB0A
:1030E00002983EBD9400002004ED00E02DE9F0437D
:1030F00085B00B464FF00008CDF80C80EFF305814A
:10310000B9BBEFF31081A1BB2E490968022902D196
:10311000EFF3118169BB60B380261824CDF81080CD
:1031200004AD4FF0FF3172B3176807B13D469769A0
:1031300007B13C46671E382F02D21779FF0703D02C
:10314000002005B0BDE8F083576907B1BE08D2F88A
:1031500008C0BCF1000F0DD0D2F80C90B9F15C0F93
:1031600008D3D2F81090B9F1000F03D017B10121A4
:103170000BE024E0BCF1000F07D1D7682FB9176925
:103180001FB9002101E0FFE70021012901D059B159
:1031900015E0916812690291CDE900423246294654
:1031A00001F0AEFA03900AE003A9CDE90041B2B202
:1031B000294601F073FA012801D0CDF80C8003985C
:1031C000BFE70000940000202DE9F04104460F46BF
:1031D000134E75693068001D00F0C6FC601C07D1F5
:1031E00037B13168BDE8F041091D0E4800F00CBD53
:1031F0002C4430684460AC4206D23168B068091D86
:10320000BDE8F04100F0E8BC31687068091D00F0CD
:10321000E3FC306B844200D23463BDE8F0810000EF
:1032200044000020840A002070B5044600F0F8FC39
:103230001C4D2869401C2861286810B1E86938B124
:103240000CE02C602869012808D100F091F905E014
:103250002868E16AC06A884200D82C60E86A401C8D
:10326000E8626064E06AA969884200D9A8610E49F1
:1032700000EB800001EB8000211D00F0C5FC00F098
:10328000EFFCE86900280CD02868E16AC06A88422F
:1032900007D206494FF080500860BFF34F8FBFF34D
:1032A0006F8F70BD44000020D405002004ED00E0C5
:1032B00038B500F0B5FC104CA068C8B90F4800F054
:1032C0007DFC0E48143000F079FC0C48206014306E
:1032D00060600A4B00202833009003F15002102157
:1032E0000A2000F071FFA06010B105A100F038FDC8
:1032F000BDE8384000F0B4BC80000020980A0020EF
:10330000546D72510000000070B50C4D0C4E11E070
:1033100000F086FCF068C468201D00F025FC2869D8
:10332000401E2861E868401EE86000F099FC2046D5
:1033300000F053F8E8680028EAD170BD440000208E
:10334000700A002030B40B46026C002A0CD0C16811
:103350001144C1604468A14201D30168C160C168E1
:1033600030BC1846FDF738B830BC70472DE9F04145
:10337000044617460026A56B226C002A10D0C7B160
:10338000E068FDF729F8E168206C091AE16022681D
:10339000914202D26168081AE060022F16D017E04D
:1033A0002068A8B9606801F039FB0646002060601B
:1033B0000EE0A068FDF710F8216CA0680844A0603A
:1033C0006168884204D32068A06001E005B16D1EE9
:1033D0006D1CA5633046BDE8F08110B5044694F835
:1033E000590000280BD0012811D0022814D05020F9
:1033F00080F31188BFF34F8FBFF36F8FFEE7206B11
:1034000000F044FC2046BDE8104000F03FBC2046E0
:10341000BDE8104000F03ABC10BD000007490A6842
:103420001168002904D00021016019B10020704703
:103430000121F9E7D0680068704700008000002093
:1034400042F210710F48420705D0C01D20F007005E
:103450000C4A821A891A0C4A1060002353600144F6
:10346000083921F00701103A11604B600B600B1A0C
:10347000436001604068906050604FF00040D06051
:103480007047000068120020A8000020074E4FF08F
:103490008054074DFFF738FF30680128FAD92C60B7
:1034A000BFF34F8FBFF36F8FF4E70000D405002008
:1034B00004ED00E070B51D46049C002909D022608F
:1034C000E06321640121204600F0B4FE84F84C50F2
:1034D00070BD2460F4E72DE9F0478146DDE9085826
:1034E0000A9C0E4617469A46B900A522206BFCF7A7
:1034F000EAFF206B7F1E00EB870020F007077807AC
:1035000007D0502080F31188BFF34F8FBFF36F8F28
:10351000FEE700202218315C82F83410315C11B1D2
:10352000401C1028F6D3002684F84360382D00D3C1
:103530003725E562E5642665201D00F04AFB04F1AD
:10354000180000F046FB2461C5F13800A0616462F8
:10355000666584F8586052464946384600F082FA5B
:103560002060B8F1000F01D0C8F80040BDE8F08736
:1035700070B50024114D04EB840005EB800000F0D1
:103580001DFB641C382CF6D30D4800F017FB0C48CB
:10359000143000F013FB0A48283000F00FFB0848F5
:1035A0003C3000F00BFB0648503000F007FB0548AC
:1035B000034941601431816070BD0000D4050020D2
:1035C000340A00204400002030B5134900E01146C1
:1035D0000A688242FBD34B685C18844203D140687E
:1035E0001844486008460D6844682318AB420DD162
:1035F000094B103B1B689A4206D052682244426035
:103600000A681268026002E0036000E00260814222
:1036100000D0086030BD0000A800002070B5002474
:10362000416000610C4D91420AD8D11A82699142E1
:1036300001D301240EE0011D686800F0CDFA09E015
:103640009A4203D2994201D3012403E0011D286864
:1036500000F0C2FA204670BD8000002010B504467C
:1036600000F0DEFAA06B20B1002400F0F9FA204649
:1036700010BD0124F9E710B5044600F0D1FAA06BA3
:10368000E16B884201D1012400E0002400F0E8FA57
:10369000204610BDF8B505460E4614480068C068BF
:1036A000C468201D00F060FAE069012810D1A0690B
:1036B0002B46411932462046FFF7B0FF40B10020AB
:1036C0000346014600902A46204601F0B9FA28B187
:1036D000616A01B02046BDE8F0400847502080F301
:1036E0001188BFF34F8FBFF36F8FFEE7800000207C
:1036F00030B587B0304D55E00398002803DADDE996
:10370000042006999047039800284BDB059C6069CC
:1037100010B1201D00F028FA02A800F097F8024628
:1037200003980A283ED2DFE800F00505053D26375C
:1037300005053D260498A169034601442046FFF78C
:103740006DFF00B3616A20468847E069012829D1EE
:10375000002000900498A1690023421819462046D1
:1037600001F06EFA78B9502080F31188BFF34F8FC3
:10377000BFF36F8FFEE70498A06128B1811813464C
:103780002046FFF74BFF0DE0502080F31188BFF378
:103790004F8FBFF36F8FFEE794F82C0010B92046CF
:1037A00000F074FA002203A9A86800F09BFE00282C
:1037B000A2D107B030BD000080000020F8B5064659
:1037C0000D4600F0E7FB684600F040F8044600981C
:1037D00010B101F09DF9F8BD45B9A64206D801F037
:1037E00097F921463046FFF755FFF8BD0C481DB14B
:1037F0004168096891B10025311B2A46806800F0B4
:10380000EFFA01F085F90028EFD106494FF080501A
:103810000860BFF34F8FBFF36F8FF8BD0125EBE753
:103820008000002004ED00E0074841680968002995
:1038300005D04168C968C9684968016370474FF09D
:10384000FF310163704700004400002070B5054659
:1038500001F078F80446074E3069844204D200F043
:103860000BF80120286001E0002028603461204628
:1038700070BD000080000020F8B5194E1FE0C06840
:103880000568C468201D00F06FF9616A204688470A
:10389000E069012813D1A0692844A84206D96060D4
:1038A0002461211D306800F097F908E000200346EC
:1038B000014600902A46204601F0C2F940B1306826
:1038C00001680029DBD13068716831607060F8BD33
:1038D000502080F31188BFF34F8FBFF36F8FFEE747
:1038E0008000002009484068401C07D0502080F329
:1038F0001188BFF34F8FBFF36F8FFEE7502080F327
:103900001188BFF34F8FBFF36F8FFEE7B000002029
:1039100008B56846FFF782FD0099FFF74FFFFFF7F4
:10392000E7FEF6E72DE9F041044600F079F994F955
:10393000455004F1240609E0606A48B1304601F0C0
:10394000ABF808B100F0A0FA6D1E6DB2002DF3DCEB
:103950004FF0FF3684F8456000F082F900F060F91E
:1039600094F9445004F1100709E0206948B1384641
:1039700001F092F808B100F087FA6D1E6DB2002DCB
:10398000F3DC84F84460BDE8F04100F069B9000060
:103990002DE9F0410546002600F0FCFA304F38686A
:1039A00008B9FFF74DFDF86805424AD18DB10835D9
:1039B00068070ED005F00700C0F10800054468074D
:1039C00007D0502080F31188BFF34F8FBFF36F8F64
:1039D000FEE7B5B37868854233D8214910310846EF
:1039E000046801E0214604466068A84202D22068CB
:1039F0000028F7D13868844223D00E680836206842
:103A000008606068411B10290ED96019420707D071
:103A1000502080F31188BFF34F8FBFF36F8FFEE705
:103A200041606560FFF7D0FD61687868401A786092
:103A3000BA68904200D2B860F86801436160002023
:103A4000206001F065F8700707D0502080F31188DE
:103A5000BFF34F8FBFF36F8FFEE73046BDE8F081B5
:103A60009800002020384FF08073C36121F00101DD
:103A700081610249416140F820297047E53800081A
:103A80007FB5054600242A237322182105200094BF
:103A9000FEF7DCFD0194029403940A2D05D22A4618
:103AA0000EA101A8FCF714FC0CE0642D05D22A46F7
:103AB0000DA101A8FCF70CFC04E02A460CA101A80A
:103AC000FCF706FC1E211920FEF7A4FE01220A497C
:103AD00001A8FEF7ADFFFEF7BFFF7FBD20202564E4
:103AE0006D6D4867000000002025646D6D4867001B
:103AF00025646D6D48670000000000200248401EEC
:103B00000028FCD17047000090D003001CB58DF850
:103B100004108DF805204FF0FF310091014602237B
:103B200001AA0248FDF7C6FC1CBD0000EC04002001
:103B300070B5C2B08DF80810002402AD04E02E1953
:103B4000115D7170641CE4B29C42F8D34FF0FF31F8
:103B500000915B1C01469BB202AA0248FDF7AAFC39
:103B600042B070BDEC0400200169D0E901329A60D6
:103B7000D0E901235A604A68824201D182684A60D2
:103B8000002202610868401E086008687047000053
:103B9000034B036003F15C000860802010607047F5
:103BA000B00B0020044B036003F15C0008604FF48D
:103BB00080701060704700000C0E002000F10801BA
:103BC00041604FF0FF328260C160016100210160FD
:103BD000704700210161704730B50C68621C02D04B
:103BE00000F1080202E0026904E01A4653681D6809
:103BF000A542FAD953684B6099608A6051600861A8
:103C00000168491C016030BD42684A6093688B605E
:103C100093685960916008610168491C01607047B0
:103C2000502080F31188BFF34F8FBFF36F8F0A4985
:103C30004868401C486001280CD10848006810F012
:103C4000FF0F07D0502080F31188BFF34F8FBFF3D1
:103C50006F8FFEE770470000B000002004ED00E029
:103C600009494868002806D0401E4860002801D154
:103C700080F311887047502080F31188BFF34F8F75
:103C8000BFF36F8FFEE70000B000002070B5002882
:103C900027D008380446134D6068E968084207D108
:103CA000502080F31188BFF34F8FBFF36F8FFEE773
:103CB00022683AB1502080F31188BFF34F8FBFF3D1
:103CC0006F8FFEE78843606000F064F960686968A0
:103CD000084468602046FFF777FCBDE8704000F0BC
:103CE00017BF70BD980000204FF0E0200021016157
:103CF000816105494FF47A720968B1FBF2F1491EFE
:103D000041610721016170474000002010B5FCF7B8
:103D10008BFA114910280ED300F1E02090F8F0033F
:103D20000A78904207D2502080F31188BFF34F8F5A
:103D3000BFF36F8FFEE709480068896800F4E06010
:103D4000884207D9502080F31188BFF34F8FBFF30B
:103D50006F8FFEE710BD0000B00000200CED00E00A
:103D600010B50022064B53F832401CB1521C082AF1
:103D7000F9D310BD43F8321003EBC201486010BD07
:103D80009405002010B50446002C0BD0204600F00E
:103D900013F894F8460000280CD12046BDE81040E6
:103DA000FFF774BF502080F31188BFF34F8FBFF32C
:103DB0006F8FFEE710BD00000021084A02EBC1032F
:103DC0005B68834206D1002042F8310002EBC1015A
:103DD00048607047491C0829F0D3704794050020BB
:103DE00070B504460D461646FFF71AFF94F94430A5
:103DF0004FF000005B1C01D184F8440094F9451099
:103E0000491C01D184F84500FFF72AFFA06B28B9AF
:103E10003246294604F1240000F056F82046BDE859
:103E20007040FFF77FBD000010B502460020002A59
:103E300012D00F48806B38B1502080F31188BFF347
:103E40004F8FBFF36F8FFEE700F0A4F800211046FC
:103E5000FFF7BAF900F05CFE002807D105494FF0E2
:103E600080500860BFF34F8FBFF36F8F10BD00000D
:103E70004400002004ED00E002498A6A02604969BA
:103E800041607047440000200149012048627047AA
:103E90004400002010B50C4600280AD009490968E2
:103EA0001831FFF799FE2046BDE810400121FFF7C9
:103EB0008BB9502080F31188BFF34F8FBFF36F8F02
:103EC000FEE700004400002070B50D4614460028AF
:103ED0000DD00B4909681831FFF796FE0CB14FF071
:103EE000FF3521462846BDE87040FFF76DB95020E8
:103EF00080F31188BFF34F8FBFF36F8FFEE7000091
:103F00004400002030B587B000250695059504AA29
:103F100005A906A8FFF73CFEDDE90510CDE9005133
:103F20000290002317A11948049A00F0E9FB184CED
:103F3000606308B1012000E00020012801D100F0F9
:103F40004BFE012809D0401C19D1502080F3118864
:103F5000BFF34F8FBFF36F8FFEE7502080F31188C0
:103F6000BFF34F8FBFF36F8F4FF0FF3020630120FF
:103F7000E061656107B0BDE8304000F06DB807B0A2
:103F800030BD000049444C45000000008D3400085D
:103F9000440000200248816B491C81637047000087
:103FA0004400002010B5174B986B002802D0012068
:103FB000586210BD002058629869134901E0C0B1F1
:103FC000401E00EB800251F82220002AF7D000EBBF
:103FD000800201EB82014A6852684A6001F10804DC
:103FE000A24201D152684A604968C9681960986163
:103FF00010BD502080F31188BFF34F8FBFF36F8F38
:10400000FEE7000044000020D405002070B5202009
:10401000FFF7BEFC04462CB100252560201DFFF7EC
:10402000CDFD2577204670BD38B500280BD0202166
:104030000091044600202060201DFFF7BFFD0120F5
:104040002077204638BD502080F31188BFF34F8F72
:10405000BFF36F8FFEE700001CB52649087801907A
:10406000FF200870087800909DF800009DF800205F
:1040700000F0F000904207D0502080F31188BFF389
:104080004F8FBFF36F8FFEE79DF800001A4B00F0D3
:10409000500018700720986006E09868401E9860ED
:1040A0009DF80000400000909DF800000006F4D448
:1040B0009868032807D0502080F31188BFF34F8FF2
:1040C000BFF36F8FFEE74FF440709860019808705F
:1040D0000A48016841F470010160016841F07041D3
:1040E0000160FFF701FE00205860FCF767F8002030
:1040F0001CBD000000E400E0B000002020ED00E066
:1041000010B50C46002809D084420FD9502080F306
:104110001188BFF34F8FBFF36F8FFEE7502080F3FE
:104120001188BFF34F8FBFF36F8FFEE7022200218C
:1041300000F025F8002800D0846310BD38B50C4687
:10414000002809D084420FD9502080F31188BFF392
:104150004F8FBFF36F8FFEE7502080F31188BFF3BE
:104160004F8FBFF36F8FFEE70221134600220091AD
:10417000114600F029F8002800D0846338BDF8B556
:1041800005460E461746002D14D0DEB105FB06F09D
:104190005030FFF7FDFB044654B104F150020020FB
:1041A00084F846003B46314628460094FFF782F9E2
:1041B0002046F8BD502080F31188BFF34F8FBFF326
:1041C0006F8FFEE70020E3E738B5049D002804D098
:1041D0005BB102B189B1C2B120E0502080F31188F7
:1041E000BFF34F8FBFF36F8FFEE7502080F311882E
:1041F000BFF34F8FBFF36F8FFEE7502080F311881E
:10420000BFF34F8FBFF36F8FFEE739B1502080F3BC
:104210001188BFF34F8FBFF36F8FFEE750240094D8
:104220001C46012384F846302B460094FFF742F9E0
:10423000204638BD70B504460D46002C25D0FFF74A
:10424000EFFCD4E90F20216802FB0011616000211E
:10425000A1632168A160E06B2268216C401E00FB15
:104260000121E1604FF0FF3084F8440084F84500FC
:1042700004F110008DB1FFF7A1FC04F12400FFF759
:104280009DFCFFF7EDFC012070BD502080F31188EC
:10429000BFF34F8FBFF36F8FFEE721690029F0D086
:1042A00000F0FAFB0028ECD004494FF08050086081
:1042B000BFF34F8FBFF36F8FE3E7000004ED00E023
:1042C0002DE9FF4782B004468A461E460025002C91
:1042D00003D0BAF1000F08D011E0502080F311880C
:1042E000BFF34F8FBFF36F8FFEE7206C38B15020C4
:1042F00080F31188BFF34F8FBFF36F8FFEE7022E5D
:104300000AD1E06B012807D0502080F31188BFF359
:104310004F8FBFF36F8FFEE700F006FB48B904989C
:1043200038B1502080F31188BFF34F8FBFF36F8FE8
:10433000FEE74FF000094FF08057DFF8E480FFF709
:104340006FFCA06BE16B884205D3022E03D004986A
:1043500008B325B327E0324651462046FFF706F85A
:10436000616A59B104F1240000F096FB68B1C8F805
:104370000070BFF34F8FBFF36F8F06E028B1C8F80E
:104380000070BFF34F8FBFF36F8FFFF769FC012001
:1043900006B0BDE8F087FFF763FC0020F8E7684649
:1043A000FFF76AFD0125FFF75BFCFFF7F3FDFFF761
:1043B00037FC94F94400401C01D184F8449094F9EE
:1043C0004500401C01D184F84590FFF749FC04A941
:1043D000684600F025F930B12046FFF7A3FA00F057
:1043E00097FB0020D4E72046FFF745F990B104F190
:1043F00010000499FFF74EFD2046FFF793FA00F0F6
:1044000087FB00289BD1C8F80070BFF34F8FBFF324
:104410006F8F94E72046FFF785FA00F079FB8EE76F
:1044200004ED00E02DE9F0470446894690461F461A
:10443000002C03D0B9F1000F08D011E0502080F318
:104440001188BFF34F8FBFF36F8FFEE7206C38B139
:10445000502080F31188BFF34F8FBFF36F8FFEE7BB
:10446000022F0AD1E06B012807D0502080F3118879
:10447000BFF34F8FBFF36F8FFEE7FFF747FC50206E
:10448000EFF3118680F31188BFF34F8FBFF36F8F67
:10449000A06BE16B884206D3022F04D0002086F384
:1044A0001188BDE8F08794F945503A4649462046C0
:1044B000FEF75CFF681C04D06D1C84F84550012099
:1044C000EDE7606A0028FAD004F1240000F0E4FA75
:1044D0000028F4D0B8F1000FF1D00120C8F8000096
:1044E000EDE700002DE9F74783B004468A46002631
:1044F000002C03D0BAF1000F08D011E0502080F357
:104500001188BFF34F8FBFF36F8FFEE7206C38B178
:10451000502080F31188BFF34F8FBFF36F8FFEE7FA
:1045200000F002FA48B9059838B1502080F311889C
:10453000BFF34F8FBFF36F8FFEE700274FF0805818
:10454000DFF8D890FFF76CFBA56BC5B1514620464C
:10455000FEF7F8FE6D1EA563206950B104F110004E
:1045600000F09AFA28B1C9F80080BFF34F8FBFF36B
:104570006F8FFFF775FB012006B0BDE8F087059847
:1045800008B126B107E0FFF76BFB0020F4E701A8B4
:10459000FFF772FC0126FFF763FBFFF7FBFCFFF759
:1045A0003FFB94F94400401C01D184F8447094F915
:1045B0004500401C01D184F84570FFF751FB05A967
:1045C00001A800F02DF858B12046FFF7ABF900F034
:1045D0009FFA2046FFF742F80028B3D00020CBE72F
:1045E0002046FFF73BF890B104F124000599FFF74E
:1045F00051FC2046FFF796F900F08AFA0028A1D175
:10460000C9F80080BFF34F8FBFF36F8F9AE7204642
:10461000FFF788F900F07CFA94E7000004ED00E071
:104620002DE9F04105460C46002D11D0C4B1FFF72D
:10463000F7FA194E70696B68C11A2268571C17D0B7
:104640002F68B66AB74215D0834213D801241DE003
:10465000502080F31188BFF34F8FBFF36F8FFEE7B9
:10466000502080F31188BFF34F8FBFF36F8FFEE7A9
:1046700000240BE08A4206D9501A20602846FFF732
:10468000FBFB002402E0002020600124FFF7E8FA91
:104690002046BDE8F0810000440000202DE9FF5FC6
:1046A0008146DDE90E788A4616469B46B000FFF744
:1046B0006FF9054628000AD05C20FFF769F9044627
:1046C0000CB1256304E02846FFF7E0FA00E000247F
:1046D0009CB1002084F85900CDE90240CDE9007872
:1046E0005B46324651464846FEF7F5FE2046FEF749
:1046F0009BFD012004B0BDE8F09F4FF0FF30F9E7CB
:10470000F0B585B00746DDE90A600C9C002815D09D
:10471000E4B15C2503952063022084F85900002051
:1047200004ADCDE90240CDE900653846FEF7D3FE81
:104730002046FEF779FD049805B0F0BD502080F3C7
:104740001188BFF34F8FBFF36F8FFEE7502080F3C8
:104750001188BFF34F8FBFF36F8FFEE72DE9F04154
:104760000D4690461F460126002812D00446FFF74A
:1047700057FA0FB1606D386094F85800022184F840
:104780005810B8F1050F1BD2DFE808F01A0B0F1311
:104790001500502080F31188BFF34F8FBFF36F8F48
:1047A000FEE7616D294361650AE0616D491C616541
:1047B00006E0656504E0022801D0656500E000269A
:1047C000012827D1201DFFF7CFF9154DE06AA9690F
:1047D000884200D9A861134900EB800001EB8000FA
:1047E000211DFFF711FAA06A38B1502080F311881B
:1047F000BFF34F8FBFF36F8FFEE7E06A2968C96A86
:10480000884207D908494FF080500860BFF34F8FA6
:10481000BFF36F8FFFF724FA3046BDE8F081000048
:1048200044000020D405002004ED00E02DE9F0470D
:104830000446DDF820800D4691469A460127002C5B
:104840001DD0FFF763FA5020EFF3118680F3118833
:10485000BFF34F8FBFF36F8FBAF1000F02D0606DBF
:10486000CAF8000094F85800022184F85810B9F1F1
:10487000050F1BD2DFE809F01A0B0F1315005020AB
:1048800080F31188BFF34F8FBFF36F8FFEE7616D29
:10489000294361650AE0616D491C616506E0656553
:1048A00004E0022801D0656500E0002701282FD12F
:1048B000A06A38B1502080F31188BFF34F8FBFF347
:1048C0006F8FFEE7154DA86B80B104F118011448F5
:1048D000FFF79AF9E06A2968C96A884218D9012065
:1048E000B8F1000F13D0C8F8000011E0201DFFF749
:1048F0003BF9E06AA969884200D9A861094900EB3F
:10490000800001EB8000211DFFF77EF9E2E768627D
:1049100086F311883846BDE8F08700004400002087
:104920005C0A0020D40500200548C169002903D095
:10493000806B18B10020704701207047022070473B
:1049400044000020014840697047000044000020F6
:104950002DE9F04100262F4FB86B002808D0386AA7
:10496000401C3862786A00B101263046BDE8F0810B
:104970007D696D1C7D619DB97868006838B15020F3
:1049800080F31188BFF34F8FBFF36F8FFEE7786816
:10499000B9687960B860B86A401CB862FEF744FF35
:1049A000386BDFF8748085420DD37868006838B1C1
:1049B0007868C068C468606885420ED2386302E0D7
:1049C0004FF0FF3038633868C06A00EB800058F859
:1049D00020000128C6D90126C4E7201DFFF7C4F82E
:1049E000A06A18B104F11800FFF7BEF8E06AB969CF
:1049F000884200D9B86100EB800008EB8000211DDF
:104A0000FFF702F9E06A3968C96A8842CDD3012606
:104A1000CBE7000044000020D405002070B5044618
:104A20000020002C2BD01A4D29688C4207D0502032
:104A300080F31188BFF34F8FBFF36F8FFEE7216DB7
:104A4000F1B1491E2165E36CE26A9A4217D0002950
:104A500015D1201DFFF788F8E06CE062C0F1380046
:104A6000A061E06AA969884200D9A861094900EB00
:104A7000800001EB8000211DFFF7C6F8012070BD0A
:104A8000502080F31188BFF34F8FBFF36F8FFEE785
:104A900044000020D405002070B5C068C468002C14
:104AA00014D004F118000646FFF75EF8154DAA6B06
:104AB000A2B131461448FFF7A7F8E06A2968C96A2D
:104AC00088421CD901200121696270BD502080F309
:104AD0001188BFF34F8FBFF36F8FFEE7201DFFF7E5
:104AE00043F8E06AA969884200D9A861074900EB48
:104AF000800001EB8000211DFFF786F8DDE7002034
:104B000070BD0000440000205C0A0020D405002095
:104B10002DE9F041002400272B4DA86B002807D079
:104B2000FFF77EF8A86B401EA863A86B40B146E073
:104B3000502080F31188BFF34F8FBFF36F8FFEE7D4
:104B40002869E0B3DFF8848001261CE0D8F80C0067
:104B5000C46804F11800FFF707F8201DFFF704F8F8
:104B6000E06AA969884200D9A861194900EB800070
:104B700001EB8000211DFFF747F8E06A2968C96A48
:104B8000884200D36E62D8F800000028DED10CB154
:104B9000FEF74AFE2C6A44B1FFF7DAFE00B16E62FE
:104BA000641E002CF8D100202862686A38B1012701
:104BB000084938070860BFF34F8FBFF36F8FFFF7C7
:104BC0004FF83846BDE8F081440000205C0A002020
:104BD000D405002004ED00E030B587B00024FEF7D6
:104BE00067FB134DA868B0B100200690059004AA99
:104BF00005A906A8FEF7D6FFDDE905100222CDE9DA
:104C00000021029000230BA10C48049AFFF778FDC5
:104C1000E86000B1012414B107B0204630BD502037
:104C200080F31188BFF34F8FBFF36F8FFEE7000053
:104C300080000020546D7220537663001139000803
:104C40002DE9FF4106460A9F9C460020002E15D004
:104C5000154DAC68002C0ED00091019202960629E9
:104C60001BDAFFF761FE022810D000231A466946BE
:104C7000A868FFF725FB04B0BDE8F081502080F361
:104C80001188BFF34F8FBFF36F8FFEE700233A46C3
:104C90006946A868FFF714FBEDE700236246694602
:104CA0002046FFF7BFFBE6E78000002021F000422E
:104CB000A2F16052B2F5801F01F0004328BFD2F18B
:104CC0007F6C0BD95FEA001C43EAC20242EB5070D2
:104CD00018BF704728BF20F001007047B2F5801F51
:104CE000BCBF184670474FEA410C1CF5001F02D2AA
:104CF000084600F00EBA70B500F0D0F80000008948
:104D0000FFF7F6BF4FF00040A0F5800070470000AD
:104D100002494FF0000000F001BA00BF0000F87F28
:104D2000B0FA80F310FA03F10AD0C3F11D0303F5C2
:104D300080634FEA41504FEA035202EBD1217047A2
:104D40004FF0000070470000DFF848C170B51CEA62
:104D5000111E1EBF1CEA13159EEA0C0F95EA0C0FDC
:104D600000F06F8081EA030423EA4C134EEAD47EFC
:104D700021EA4C1141F4801143F48013AE44A1FBAD
:104D8000024CA0FB0365AEF17F7E361955EB0C0596
:104D9000A1FB034C4CF10003A0FB021C16EB0C061C
:104DA000654153F10003094218BF46F0010613F4B0
:104DB000007F0BD14FEA03314FEA0530340341EA5B
:104DC000155140EA16506FF003020AE04FEAC32182
:104DD0004FEAC520F40241EA555140EA56506FF0BF
:104DE000020202EB2E4201EB025585EACE710AD097
:104DF0005FEA440C18BF24F0004450F1000041F178
:104E0000000120EAD47040F2FE7C624500D270BD01
:104E1000A84214BF4FF080444FF04044002E08BF1A
:104E20000024BEF1806FA8BFA1F1C041BDE8704071
:104E300080F282804FF0000001F1C04101F000419A
:104E400070479EEA0C0F0CEA131518BF95EA0C0F79
:104E500006D04FF0000081EA030E0EF0004170BD55
:104E600000F01CF88900013E00F007B800F009B816
:104E70004FEA430C5FEA5C5C08D081EA030100F072
:104E80005BB84FEA410C5FEA5C5CF6D14FF0000082
:104E9000014970470000FF070000F87F0EF1020E85
:104EA0002EF0030E5EF8046B364205D4012A43EB64
:104EB000030515F5001F12D8012841EB010C1CF564
:104EC000001F0CD80ED14FEAD17C15F5001F0CEB5A
:104ED0004C0C0CF1020C08BF4CEBD37C04E04FF0FF
:104EE000080C01E04FEAD37C0CEB4C0526FA05F6E2
:104EF00006F00706B6F1040C06D20EEB860CBDE8F0
:104F000070404CF0010C6047DFE80CF0090B020226
:104F10004FF000414FF00000A1F5002170BD19468F
:104F20001046012851EB010418BFD4F5001484BFCA
:104F3000002001F0004170BD0808A0F500114FEA03
:104F400031017047C10DD1F19E0206DB4FEA00230B
:104F500043F0004323FA02F07047004207D54FEABE
:104F60004001B1F1FE4F02D24FF00000704710B582
:104F700000F089F849922480002070476FEA2000F1
:104F8000704700004FF47F0C1CEAD0121EBF1CEAD1
:104F9000D11392EA0C0F93EA0C0F00F0478090EACD
:104FA000010F48BF42F480724FF0004C4CEA0020E1
:104FB0004CEA012102EB0302A0FB0113A2F500025F
:104FC000002918BF43F001035B0028BF4FEA3303F9
:104FD00042EB22425FEA132C4CEBC2502EBFBCEBDB
:104FE000436FB2F57C0F70474FEA036CBCF1004F82
:104FF00008BF20F00100B2F57C0F38BF70470BD519
:1050000082F0FF0212F5803FC8BF704700F1C04038
:10501000D8BF00F00040704700F5000C5FEA4C0C70
:1050200048BF7047B0F1C04000F073B890EA010F7C
:105030000CEAD11348BF42F48072624538BF634521
:1050400004D280EA010000F00040704710B500F083
:105050001AF800BF8900013E00F007B800F009B857
:105060005FEA410C5FEA1C6C08D080EA010000F0A6
:1050700050B85FEA400C5FEA1C6CF6D14FF000407C
:10508000A0F5800070470EF1020E2EF0030E5EF8C0
:10509000044B244204D44FEA4102B2F17F4F11D8AD
:1050A0004FEA4003B3F17F4F0CD80ED14FEAD07CCA
:1050B000B2F17F4F0CEB4C0C0CF1020C08BF4CEB27
:1050C000D17C04E04FF0080C01E04FEAD17C0CEBFE
:1050D0004C0324FA03F404F00704B4F1040C06D2E0
:1050E0000EEB840CBDE810404CF0010C6047DFE88B
:1050F0000CF0070802024FF00040A0F5800010BD40
:105100000846420018BFD2F1807288BF00F000400C
:1051100010BDFF2141EAD050C00570470CF00F03CD
:10512000092B08BF082000F059800A2B0BD0082B50
:1051300018BF704708BF1CF0400F0AD04FF00000A6
:105140004FF0000170471CF0400F18BF4FF00040B7
:1051500070471CF0100F08D020F0704300F07F4221
:1051600042EAD3014FEA4370704700F0604021F0FB
:105170007F4242EA000201F07F4040EA72707047CD
:105180004FF0FF0C4CF4E06C1CEA11531CBF9CEA7E
:10519000030C9445C2BFDA4201EB02517047002B69
:1051A0000DD0BCF1000F0FD0002A01F00041A4BFC8
:1051B00041F0E04141F07F614FF00000704701F0A5
:1051C00000414FF00000704750EA01334FF09B0C54
:1051D00018BF4CF0806C7FF49BAD70471CF4801FAF
:1051E00011D01CF4E02F03D06FEACC314900704796
:1051F0004FF04050EFF3008222F0704242EA00028A
:1052000082F3008870474FF00000704700000000F4
:10521000000000000000000000000000000000008E
:10522000000000000000000000000000000000007E
:105230000000000C000C000C000C000C000C000C1A
:10524000000C000C000C000C0000000C000C000016
:10525000000000000000001B001B001B001B001BC7
:10526000000000000000000000000000000000003E
:105270000000000000000000000080198019801963
:105280008019C07FC07F80190033C07FC07F00338A
:105290000033003300330000000000000000001E57
:1052A000003F807580650074003C001E000780058B
:1052B000806580658075003F001E000400040000CA
:1052C0000000007000D840D8C0D880D90073000614
:1052D000000C801BC036C066C046C00680030000BC
:1052E000000000000000001E003F003300330033C8
:1052F000001E000CC03CC066806380618063C03EBD
:10530000801C0000000000000000000C000C000CDD
:10531000000C000C00000000000000000000000075
:1053200000000000000000000000000080000001FC
:105330000003000600060004000C000C000C000C2A
:10534000000C000C000400060006000300018000B1
:10535000002000100018000C000C000400060006DD
:1053600000060006000600060004000C000C0018F1
:10537000001000200000000C002D003F001E003334
:10538000000000000000000000000000000000001D
:105390000000000000000000000000000000000C01
:1053A000000C000C000CC0FFC0FF000C000C000C37
:1053B000000C0000000000000000000000000000E1
:1053C00000000000000000000000000000000000DD
:1053D000000000000000000C000C000400040008A5
:1053E00000000000000000000000000000000000BD
:1053F0000000001E001E0000000000000000000071
:10540000000000000000000000000000000000009C
:105410000000000000000000000000000000000C80
:10542000000C000000000000000000030003000367
:105430000006000600060006000C000C000C000C24
:105440000018001800180000000000000000001EF6
:10545000003F0033806180618061806D806D80617C
:10546000806180610033003F001E000000000000EA
:1054700000000006000E001E003600260006000692
:1054800000060006000600060006000600060000F2
:10549000000000000000001E003F807380618061FA
:1054A000800100030006000C001800300060807FBF
:1054B000807F0000000000000000001C003E006330
:1054C00000630003000E000E000380018001806174
:1054D0008073003F001E0000000000000000000676
:1054E000000E000E001E001E00160036003600667C
:1054F000807F807F0006000600060000000000009C
:105500000000007F007F006000600060006E007F90
:1055100080638001800180618073003F001E000075
:10552000000000000000001E003F8033806100602A
:10553000006E007F80738061806180618033003FF6
:10554000001E0000000000000000807F807F8001BE
:105550000003000300060006000C000C000C00080D
:105560000018001800180000000000000000001ED5
:10557000003F8063806180610021001E003F8061E8
:10558000806180618061003F001E0000000000001B
:105590000000001E003F00738061806180618073A5
:1055A000803F801D800180610073003F001E00006D
:1055B0000000000000000000000000000000000CDF
:1055C000000C000000000000000000000000000CC3
:1055D000000C0000000000000000000000000000BF
:1055E00000000000000C000C0000000000000000A3
:1055F0000000000C000C0004000400080000000083
:105600000000000080008003000E003800600038B9
:10561000000E800380000000000000000000000079
:1056200000000000000000000000807F807F00007C
:105630000000807F807F000000000000000000006C
:1056400000000000000000000000000000400070AA
:10565000001C000780010007001C007000400000D3
:1056600000000000000000000000001F803FC0712B
:10567000C060C000C00180030007000E000C000CD9
:105680000000000C000C0000000000000000001EE4
:10569000003F803180718063806F806D806D806F8E
:1056A000806700600032003E001C00000000000027
:1056B0000000000E000E001B001B001B001B8031B1
:1056C0008031803F803F8031C060C060C06000009A
:1056D000000000000000007C007E006300630063A7
:1056E0000063007E007E0063806180618063007FD4
:1056F000007E0000000000000000001E003F80311E
:105700008061006000600060006000600060806197
:105710008031003F001E0000000000000000007CFF
:10572000007F00638063806180618061806180614F
:10573000806100630063007E007C000000000000C8
:105740000000807F807F0060006000600060007F5C
:10575000007F0060006000600060807F807F00004C
:10576000000000000000807F807F0060006000601B
:105770000060007F007F00600060006000600060EB
:1057800000600000000000000000001E003F8031AB
:105790008061006000600060806380638061806180
:1057A0008031803F001E000000000000000080618A
:1057B00080618061806180618061807F807F8061A5
:1057C0008061806180618061806100000000000074
:1057D0000000003F003F000C000C000C000C000C0F
:1057E000000C000C000C000C000C003F003F0000FF
:1057F0000000000000008001800180018001800124
:105800008001800180018001806180618073003FA0
:10581000001E0000000000000000C0608061006306
:1058200000660066006C0078007C0066006600631D
:1058300080618061C0600000000000000000006026
:105840000060006000600060006000600060006058
:10585000006000600060807F807F0000000000002A
:105860000000C071C071C07BC07AC06AC06AC06EDF
:10587000C064C060C060C060C060C060C060000044
:10588000000000000000807180718079807980794B
:10589000806D806D806D80658067806780678063C4
:1058A00080630000000000000000001E003F003385
:1058B00080618061806180618061806180618061E0
:1058C0000033003F001E0000000000000000007ECA
:1058D000007F80638061806180618063007F007EE3
:1058E00000600060006000600060000000000000D8
:1058F0000000001E003F0033806180618061806194
:1059000080618061806580670033803F401E0000B9
:10591000000000000000007E007F806380618061E5
:105920008063007F007E00660063006380618061A9
:10593000C0600000000000000000000E001F803169
:10594000803100300038001E0007800380618061D4
:105950008031003F001E0000000000000000C0FF7A
:10596000C0FF000C000C000C000C000C000C000C24
:10597000000C000C000C000C000C000000000000EB
:1059800000008061806180618061806180618061F0
:1059900080618061806180618073003F001E000033
:1059A000000000000000C060C060C0608031803135
:1059B0008031001B001B001B001B000E000E000EA0
:1059C00000040000000000000000C0C0C0C0C0C053
:1059D000C0C0C0C0C0CC804C804C805E8052805221
:1059E0008073806180610000000000000000C0C082
:1059F000806080610033003B001E000C000C001E24
:105A0000001F003B80718061C0C0000000000000EA
:105A10000000C0C08061806100330033001E001EA2
:105A2000000C000C000C000C000C000C000C000022
:105A3000000000000000803F803F80010003000361
:105A40000006000C000C0018001800300060807F79
:105A5000807F000000000000000F000F000C000C11
:105A6000000C000C000C000C000C000C000C000CD6
:105A7000000C000C000C000C000F000F00000018C0
:105A800000180018000C000C000C000C00060006AA
:105A900000060006000300030003000000000000F1
:105AA000001E001E00060006000600060006000696
:105AB00000060006000600060006000600060006B6
:105AC000001E001E0000000C000C001E001200331F
:105AD00000338061806100000000000000000000D1
